:0400000000000413e5
:040001000084141350
:04000200008414134f
:0400030002040413dc
:04000400008414134d
:0400050001c404131b
:04000600000004935f
:04000700008494934a
:040008000084949349
:0400090002048493d6
:04000a000084949347
:04000b0002048493d4
:04000c0000000913d4
:04000d00008919133a
:04000e000089191339
:04000f0002090913c6
:040010000089191337
:040011000249091384
:04001200000009934e
:040013000089999334
:040014000089999333
:0400150002098993c0
:040016000089999331
:040017000049899380
:0400180000000a13c7
:04001900008a1a132c
:04001a00008a1a132b
:04001b00020a0a13b8
:04001c00008a1a1329
:04001d0000000a9342
:04001e00008a9a9327
:04001f00008a9a9326
:04002000020a8a93b3
:04002100008a9a9324
:0400220002ca8a93f1
:0400230000000b13bb
:04002400008b1b131f
:04002500008b1b131e
:04002600020b0b13ab
:04002700008b1b131c
:0400280002db0b13d9
:0400290002000b9333
:04002a0002400293fb
:04002b00005420233a
:04002c00000aa02303
:04002d00000b202381
:04002e0016800293a3
:04002f0000502a2330
:04003000000ba023fe
:0400310000000313b5
:040032000083131321
:040033000083131320
:0400340002030313ad
:04003500008313131e
:04003600005303135d
:040037000009a023f9
:04003800000320237e
:0400390000000313ad
:04003a000083131319
:04003b000083131318
:04003c0002030313a5
:04003d000083131316
:04003e000083031325
:04003f000003202377
:0400400000000313a6
:040041000083131312
:040042000083131311
:04004300020303139e
:04004400008313130f
:04004500009303130e
:040046000003202370
:04004700000003139f
:04004800008313130b
:04004900008313130a
:04004a000203031397
:04004b000083131308
:04004c0000c30313d7
:04004d000003202369
:04004e000000031398
:04004f000083131304
:040050000083131303
:040051000203031390
:040052000083131301
:0400530000d30313c0
:040054000003202362
:04005500000a20235a
:040056000080029391
:04005700005aa02388
:040058000010019300
:040059000000006340
:04005a00000bae03e6
:04005b0002400e93be
:04005c0001d4202388
:04005d0000000e93fe
:04005e00008e9e93df
:04005f00008e9e93de
:04006000001e8e935d
:04006100008e9e93dc
:040062000f4e8e931c
:0400630001d4a02301
:040064000fa00e9348
:0400650001d920237a
:04006600020e04631f
:0400670000100e93e4
:0400680003de0c6344
:0400690001800e9371
:04006a0001d420237a
:04006b0000200e93d0
:04006c0001d9a023f3
:04006d0000400e93ae
:04006e0001da202370
:04006f0002000a631e
:0400700005800e9366
:0400710001d4202373
:040072000009a023be
:0400730000100e93d8
:0400740001da20236a
:0400750000000e6316
:040076000d800e9358
:0400770001d420236d
:0400780000100e93d3
:0400790001d9a023e6
:04007a0000200e93c1
:04007b0001da202363
:04007c00001e0e1341
:04007d0000300e93ae
:04007e0001de146328
:04007f0000000e135c
:0400800001cba023ed
:04008100000b2e033f
:040082000f7e7e135c
:0400830001cb20236a
:04008400000200670f
:00000001FF
